{
  "contractName": "ViperToken",
  "abi": [
    {
      "inputs": [],
      "stateMutability": "nonpayable",
      "type": "constructor"
    },
    {
      "anonymous": false,
      "inputs": [
        {
          "indexed": true,
          "internalType": "address",
          "name": "owner",
          "type": "address"
        },
        {
          "indexed": true,
          "internalType": "address",
          "name": "approved",
          "type": "address"
        },
        {
          "indexed": true,
          "internalType": "uint256",
          "name": "tokenId",
          "type": "uint256"
        }
      ],
      "name": "Approval",
      "type": "event"
    },
    {
      "anonymous": false,
      "inputs": [
        {
          "indexed": true,
          "internalType": "address",
          "name": "owner",
          "type": "address"
        },
        {
          "indexed": true,
          "internalType": "address",
          "name": "operator",
          "type": "address"
        },
        {
          "indexed": false,
          "internalType": "bool",
          "name": "approved",
          "type": "bool"
        }
      ],
      "name": "ApprovalForAll",
      "type": "event"
    },
    {
      "anonymous": false,
      "inputs": [
        {
          "indexed": false,
          "internalType": "address",
          "name": "owner",
          "type": "address"
        },
        {
          "indexed": false,
          "internalType": "uint256",
          "name": "viperId",
          "type": "uint256"
        },
        {
          "indexed": false,
          "internalType": "uint256",
          "name": "matronId",
          "type": "uint256"
        },
        {
          "indexed": false,
          "internalType": "uint256",
          "name": "sireId",
          "type": "uint256"
        },
        {
          "indexed": false,
          "internalType": "uint8",
          "name": "genes",
          "type": "uint8"
        }
      ],
      "name": "Birth",
      "type": "event"
    },
    {
      "anonymous": false,
      "inputs": [
        {
          "indexed": true,
          "internalType": "address",
          "name": "from",
          "type": "address"
        },
        {
          "indexed": true,
          "internalType": "address",
          "name": "to",
          "type": "address"
        },
        {
          "indexed": true,
          "internalType": "uint256",
          "name": "tokenId",
          "type": "uint256"
        }
      ],
      "name": "Transfer",
      "type": "event"
    },
    {
      "inputs": [
        {
          "internalType": "address",
          "name": "to",
          "type": "address"
        },
        {
          "internalType": "uint256",
          "name": "tokenId",
          "type": "uint256"
        }
      ],
      "name": "approve",
      "outputs": [],
      "stateMutability": "nonpayable",
      "type": "function"
    },
    {
      "inputs": [
        {
          "internalType": "address",
          "name": "owner",
          "type": "address"
        }
      ],
      "name": "balanceOf",
      "outputs": [
        {
          "internalType": "uint256",
          "name": "",
          "type": "uint256"
        }
      ],
      "stateMutability": "view",
      "type": "function",
      "constant": true
    },
    {
      "inputs": [
        {
          "internalType": "uint256",
          "name": "tokenId",
          "type": "uint256"
        }
      ],
      "name": "getApproved",
      "outputs": [
        {
          "internalType": "address",
          "name": "",
          "type": "address"
        }
      ],
      "stateMutability": "view",
      "type": "function",
      "constant": true
    },
    {
      "inputs": [
        {
          "internalType": "address",
          "name": "owner",
          "type": "address"
        },
        {
          "internalType": "address",
          "name": "operator",
          "type": "address"
        }
      ],
      "name": "isApprovedForAll",
      "outputs": [
        {
          "internalType": "bool",
          "name": "",
          "type": "bool"
        }
      ],
      "stateMutability": "view",
      "type": "function",
      "constant": true
    },
    {
      "inputs": [],
      "name": "name",
      "outputs": [
        {
          "internalType": "string",
          "name": "",
          "type": "string"
        }
      ],
      "stateMutability": "view",
      "type": "function",
      "constant": true
    },
    {
      "inputs": [],
      "name": "owner",
      "outputs": [
        {
          "internalType": "address payable",
          "name": "",
          "type": "address"
        }
      ],
      "stateMutability": "view",
      "type": "function",
      "constant": true
    },
    {
      "inputs": [
        {
          "internalType": "uint256",
          "name": "tokenId",
          "type": "uint256"
        }
      ],
      "name": "ownerOf",
      "outputs": [
        {
          "internalType": "address",
          "name": "",
          "type": "address"
        }
      ],
      "stateMutability": "view",
      "type": "function",
      "constant": true
    },
    {
      "inputs": [
        {
          "internalType": "address",
          "name": "from",
          "type": "address"
        },
        {
          "internalType": "address",
          "name": "to",
          "type": "address"
        },
        {
          "internalType": "uint256",
          "name": "tokenId",
          "type": "uint256"
        }
      ],
      "name": "safeTransferFrom",
      "outputs": [],
      "stateMutability": "nonpayable",
      "type": "function"
    },
    {
      "inputs": [
        {
          "internalType": "address",
          "name": "from",
          "type": "address"
        },
        {
          "internalType": "address",
          "name": "to",
          "type": "address"
        },
        {
          "internalType": "uint256",
          "name": "tokenId",
          "type": "uint256"
        },
        {
          "internalType": "bytes",
          "name": "_data",
          "type": "bytes"
        }
      ],
      "name": "safeTransferFrom",
      "outputs": [],
      "stateMutability": "nonpayable",
      "type": "function"
    },
    {
      "inputs": [
        {
          "internalType": "address",
          "name": "operator",
          "type": "address"
        },
        {
          "internalType": "bool",
          "name": "approved",
          "type": "bool"
        }
      ],
      "name": "setApprovalForAll",
      "outputs": [],
      "stateMutability": "nonpayable",
      "type": "function"
    },
    {
      "inputs": [
        {
          "internalType": "bytes4",
          "name": "interfaceId",
          "type": "bytes4"
        }
      ],
      "name": "supportsInterface",
      "outputs": [
        {
          "internalType": "bool",
          "name": "",
          "type": "bool"
        }
      ],
      "stateMutability": "view",
      "type": "function",
      "constant": true
    },
    {
      "inputs": [],
      "name": "symbol",
      "outputs": [
        {
          "internalType": "string",
          "name": "",
          "type": "string"
        }
      ],
      "stateMutability": "view",
      "type": "function",
      "constant": true
    },
    {
      "inputs": [
        {
          "internalType": "uint256",
          "name": "tokenId",
          "type": "uint256"
        }
      ],
      "name": "tokenURI",
      "outputs": [
        {
          "internalType": "string",
          "name": "",
          "type": "string"
        }
      ],
      "stateMutability": "view",
      "type": "function",
      "constant": true
    },
    {
      "inputs": [
        {
          "internalType": "address",
          "name": "from",
          "type": "address"
        },
        {
          "internalType": "address",
          "name": "to",
          "type": "address"
        },
        {
          "internalType": "uint256",
          "name": "tokenId",
          "type": "uint256"
        }
      ],
      "name": "transferFrom",
      "outputs": [],
      "stateMutability": "nonpayable",
      "type": "function"
    },
    {
      "inputs": [
        {
          "internalType": "uint256",
          "name": "",
          "type": "uint256"
        }
      ],
      "name": "vipers",
      "outputs": [
        {
          "internalType": "uint8",
          "name": "genes",
          "type": "uint8"
        },
        {
          "internalType": "uint256",
          "name": "matronId",
          "type": "uint256"
        },
        {
          "internalType": "uint256",
          "name": "sireId",
          "type": "uint256"
        }
      ],
      "stateMutability": "view",
      "type": "function",
      "constant": true
    },
    {
      "inputs": [],
      "name": "buyViper",
      "outputs": [
        {
          "internalType": "uint256",
          "name": "",
          "type": "uint256"
        }
      ],
      "stateMutability": "payable",
      "type": "function",
      "payable": true
    },
    {
      "inputs": [
        {
          "internalType": "uint256",
          "name": "matronId",
          "type": "uint256"
        },
        {
          "internalType": "uint256",
          "name": "sireId",
          "type": "uint256"
        }
      ],
      "name": "breedVipers",
      "outputs": [
        {
          "internalType": "uint256",
          "name": "",
          "type": "uint256"
        }
      ],
      "stateMutability": "payable",
      "type": "function",
      "payable": true
    },
    {
      "inputs": [
        {
          "internalType": "uint256",
          "name": "viperId",
          "type": "uint256"
        }
      ],
      "name": "getViperDetails",
      "outputs": [
        {
          "internalType": "uint256",
          "name": "",
          "type": "uint256"
        },
        {
          "internalType": "uint8",
          "name": "",
          "type": "uint8"
        },
        {
          "internalType": "uint256",
          "name": "",
          "type": "uint256"
        },
        {
          "internalType": "uint256",
          "name": "",
          "type": "uint256"
        }
      ],
      "stateMutability": "view",
      "type": "function",
      "constant": true
    },
    {
      "inputs": [],
      "name": "ownedVipers",
      "outputs": [
        {
          "internalType": "uint256[]",
          "name": "",
          "type": "uint256[]"
        }
      ],
      "stateMutability": "view",
      "type": "function",
      "constant": true
    },
    {
      "inputs": [
        {
          "internalType": "address",
          "name": "newOwner",
          "type": "address"
        }
      ],
      "name": "changeOwner",
      "outputs": [],
      "stateMutability": "nonpayable",
      "type": "function"
    },
    {
      "inputs": [],
      "name": "withdraw",
      "outputs": [
        {
          "internalType": "bool",
          "name": "success",
          "type": "bool"
        }
      ],
      "stateMutability": "nonpayable",
      "type": "function"
    }
  ],
  "bytecode": "0x60806040523480156200001157600080fd5b506040518060400160405280600681526020017f56697065727300000000000000000000000000000000000000000000000000008152506040518060400160405280600381526020017f5650520000000000000000000000000000000000000000000000000000000000815250816000908051906020019062000096929190620000f9565b508060019080519060200190620000af929190620000f9565b50505033600660006101000a81548173ffffffffffffffffffffffffffffffffffffffff021916908373ffffffffffffffffffffffffffffffffffffffff1602179055506200020e565b8280546200010790620001a9565b90600052602060002090601f0160209004810192826200012b576000855562000177565b82601f106200014657805160ff191683800117855562000177565b8280016001018555821562000177579182015b828111156200017657825182559160200191906001019062000159565b5b5090506200018691906200018a565b5090565b5b80821115620001a55760008160009055506001016200018b565b5090565b60006002820490506001821680620001c257607f821691505b60208210811415620001d957620001d8620001df565b5b50919050565b7f4e487b7100000000000000000000000000000000000000000000000000000000600052602260045260246000fd5b613194806200021e6000396000f3fe60806040526004361061012a5760003560e01c80636352211e116100ab578063a22cb4651161006f578063a22cb46514610412578063a6f9dae11461043b578063ab96722114610464578063b88d4fde14610494578063c87b56dd146104bd578063e985e9c5146104fa5761012a565b80636352211e1461030357806370a08231146103405780638b1e199b1461037d5780638da5cb5b146103bc57806395d89b41146103e75761012a565b8063278a4597116100f2578063278a45971461022657806329d8b9891461026657806333293e65146102915780633ccfd60b146102af57806342842e0e146102da5761012a565b806301ffc9a71461012f57806306fdde031461016c578063081812fc14610197578063095ea7b3146101d457806323b872dd146101fd575b600080fd5b34801561013b57600080fd5b50610156600480360381019061015191906120eb565b610537565b604051610163919061261a565b60405180910390f35b34801561017857600080fd5b50610181610619565b60405161018e9190612635565b60405180910390f35b3480156101a357600080fd5b506101be60048036038101906101b9919061213d565b6106ab565b6040516101cb9190612523565b60405180910390f35b3480156101e057600080fd5b506101fb60048036038101906101f691906120af565b610730565b005b34801561020957600080fd5b50610224600480360381019061021f9190611fa9565b610848565b005b34801561023257600080fd5b5061024d6004803603810190610248919061213d565b6108a8565b60405161025d9493929190612832565b60405180910390f35b34801561027257600080fd5b5061027b610927565b60405161028891906125f8565b60405180910390f35b610299610af2565b6040516102a69190612817565b60405180910390f35b3480156102bb57600080fd5b506102c4610b18565b6040516102d1919061261a565b60405180910390f35b3480156102e657600080fd5b5061030160048036038101906102fc9190611fa9565b610bea565b005b34801561030f57600080fd5b5061032a6004803603810190610325919061213d565b610c0a565b6040516103379190612523565b60405180910390f35b34801561034c57600080fd5b5061036760048036038101906103629190611f44565b610cbc565b6040516103749190612817565b60405180910390f35b34801561038957600080fd5b506103a4600480360381019061039f919061213d565b610d74565b6040516103b393929190612877565b60405180910390f35b3480156103c857600080fd5b506103d1610dbb565b6040516103de919061253e565b60405180910390f35b3480156103f357600080fd5b506103fc610de1565b6040516104099190612635565b60405180910390f35b34801561041e57600080fd5b5061043960048036038101906104349190612073565b610e73565b005b34801561044757600080fd5b50610462600480360381019061045d9190611f44565b610ff4565b005b61047e60048036038101906104799190612166565b6110cc565b60405161048b9190612817565b60405180910390f35b3480156104a057600080fd5b506104bb60048036038101906104b69190611ff8565b6110f4565b005b3480156104c957600080fd5b506104e460048036038101906104df919061213d565b611156565b6040516104f19190612635565b60405180910390f35b34801561050657600080fd5b50610521600480360381019061051c9190611f6d565b6111fd565b60405161052e919061261a565b60405180910390f35b60007f80ac58cd000000000000000000000000000000000000000000000000000000007bffffffffffffffffffffffffffffffffffffffffffffffffffffffff1916827bffffffffffffffffffffffffffffffffffffffffffffffffffffffff1916148061060257507f5b5e139f000000000000000000000000000000000000000000000000000000007bffffffffffffffffffffffffffffffffffffffffffffffffffffffff1916827bffffffffffffffffffffffffffffffffffffffffffffffffffffffff1916145b80610612575061061182611291565b5b9050919050565b60606000805461062890612b47565b80601f016020809104026020016040519081016040528092919081815260200182805461065490612b47565b80156106a15780601f10610676576101008083540402835291602001916106a1565b820191906000526020600020905b81548152906001019060200180831161068457829003601f168201915b5050505050905090565b60006106b6826112fb565b6106f5576040517f08c379a00000000000000000000000000000000000000000000000000000000081526004016106ec90612777565b60405180910390fd5b6004600083815260200190815260200160002060009054906101000a900473ffffffffffffffffffffffffffffffffffffffff169050919050565b600061073b82610c0a565b90508073ffffffffffffffffffffffffffffffffffffffff168373ffffffffffffffffffffffffffffffffffffffff1614156107ac576040517f08c379a00000000000000000000000000000000000000000000000000000000081526004016107a3906127d7565b60405180910390fd5b8073ffffffffffffffffffffffffffffffffffffffff166107cb611367565b73ffffffffffffffffffffffffffffffffffffffff1614806107fa57506107f9816107f4611367565b6111fd565b5b610839576040517f08c379a0000000000000000000000000000000000000000000000000000000008152600401610830906126f7565b60405180910390fd5b610843838361136f565b505050565b610859610853611367565b82611428565b610898576040517f08c379a000000000000000000000000000000000000000000000000000000000815260040161088f906127f7565b60405180910390fd5b6108a3838383611506565b505050565b6000806000806000600786815481106108ea577f4e487b7100000000000000000000000000000000000000000000000000000000600052603260045260246000fd5b90600052602060002090600302019050858160000160009054906101000a900460ff16826001015483600201549450945094509450509193509193565b6060600061093433610cbc565b905060008114156109b757600067ffffffffffffffff811115610980577f4e487b7100000000000000000000000000000000000000000000000000000000600052604160045260246000fd5b6040519080825280602002602001820160405280156109ae5781602001602082028036833780820191505090505b50915050610aef565b60008167ffffffffffffffff8111156109f9577f4e487b7100000000000000000000000000000000000000000000000000000000600052604160045260246000fd5b604051908082528060200260200182016040528015610a275781602001602082028036833780820191505090505b509050600060078054905090506000805b82811015610ae6573373ffffffffffffffffffffffffffffffffffffffff16610a6082610c0a565b73ffffffffffffffffffffffffffffffffffffffff161415610ad25780848381518110610ab6577f4e487b7100000000000000000000000000000000000000000000000000000000600052603260045260246000fd5b602002602001018181525050600182610acf9190612980565b91505b600181610adf9190612980565b9050610a38565b83955050505050505b90565b600066470de4df8200003414610b0757600080fd5b610b1360008033611762565b905090565b6000600660009054906101000a900473ffffffffffffffffffffffffffffffffffffffff1673ffffffffffffffffffffffffffffffffffffffff163373ffffffffffffffffffffffffffffffffffffffff1614610b7457600080fd5b6000479050600660009054906101000a900473ffffffffffffffffffffffffffffffffffffffff1673ffffffffffffffffffffffffffffffffffffffff166108fc829081150290604051600060405180830381858888f19350505050158015610be1573d6000803e3d6000fd5b50600191505090565b610c05838383604051806020016040528060008152506110f4565b505050565b6000806002600084815260200190815260200160002060009054906101000a900473ffffffffffffffffffffffffffffffffffffffff169050600073ffffffffffffffffffffffffffffffffffffffff168173ffffffffffffffffffffffffffffffffffffffff161415610cb3576040517f08c379a0000000000000000000000000000000000000000000000000000000008152600401610caa90612737565b60405180910390fd5b80915050919050565b60008073ffffffffffffffffffffffffffffffffffffffff168273ffffffffffffffffffffffffffffffffffffffff161415610d2d576040517f08c379a0000000000000000000000000000000000000000000000000000000008152600401610d2490612717565b60405180910390fd5b600360008373ffffffffffffffffffffffffffffffffffffffff1673ffffffffffffffffffffffffffffffffffffffff168152602001908152602001600020549050919050565b60078181548110610d8457600080fd5b90600052602060002090600302016000915090508060000160009054906101000a900460ff16908060010154908060020154905083565b600660009054906101000a900473ffffffffffffffffffffffffffffffffffffffff1681565b606060018054610df090612b47565b80601f0160208091040260200160405190810160405280929190818152602001828054610e1c90612b47565b8015610e695780601f10610e3e57610100808354040283529160200191610e69565b820191906000526020600020905b815481529060010190602001808311610e4c57829003601f168201915b5050505050905090565b610e7b611367565b73ffffffffffffffffffffffffffffffffffffffff168273ffffffffffffffffffffffffffffffffffffffff161415610ee9576040517f08c379a0000000000000000000000000000000000000000000000000000000008152600401610ee0906126b7565b60405180910390fd5b8060056000610ef6611367565b73ffffffffffffffffffffffffffffffffffffffff1673ffffffffffffffffffffffffffffffffffffffff16815260200190815260200160002060008473ffffffffffffffffffffffffffffffffffffffff1673ffffffffffffffffffffffffffffffffffffffff16815260200190815260200160002060006101000a81548160ff0219169083151502179055508173ffffffffffffffffffffffffffffffffffffffff16610fa3611367565b73ffffffffffffffffffffffffffffffffffffffff167f17307eab39ab6107e8899845ad3d59bd9653f200f220920489ca2b5937696c3183604051610fe8919061261a565b60405180910390a35050565b600660009054906101000a900473ffffffffffffffffffffffffffffffffffffffff1673ffffffffffffffffffffffffffffffffffffffff163373ffffffffffffffffffffffffffffffffffffffff161461104e57600080fd5b600073ffffffffffffffffffffffffffffffffffffffff168173ffffffffffffffffffffffffffffffffffffffff16141561108857600080fd5b80600660006101000a81548173ffffffffffffffffffffffffffffffffffffffff021916908373ffffffffffffffffffffffffffffffffffffffff16021790555050565b600066b1a2bc2ec5000034146110e157600080fd5b6110ec838333611762565b905092915050565b6111056110ff611367565b83611428565b611144576040517f08c379a000000000000000000000000000000000000000000000000000000000815260040161113b906127f7565b60405180910390fd5b611150848484846118a8565b50505050565b6060611161826112fb565b6111a0576040517f08c379a0000000000000000000000000000000000000000000000000000000008152600401611197906127b7565b60405180910390fd5b60006111aa611904565b905060008151116111ca57604051806020016040528060008152506111f5565b806111d48461191b565b6040516020016111e59291906124ff565b6040516020818303038152906040525b915050919050565b6000600560008473ffffffffffffffffffffffffffffffffffffffff1673ffffffffffffffffffffffffffffffffffffffff16815260200190815260200160002060008373ffffffffffffffffffffffffffffffffffffffff1673ffffffffffffffffffffffffffffffffffffffff16815260200190815260200160002060009054906101000a900460ff16905092915050565b60007f01ffc9a7000000000000000000000000000000000000000000000000000000007bffffffffffffffffffffffffffffffffffffffffffffffffffffffff1916827bffffffffffffffffffffffffffffffffffffffffffffffffffffffff1916149050919050565b60008073ffffffffffffffffffffffffffffffffffffffff166002600084815260200190815260200160002060009054906101000a900473ffffffffffffffffffffffffffffffffffffffff1673ffffffffffffffffffffffffffffffffffffffff1614159050919050565b600033905090565b816004600083815260200190815260200160002060006101000a81548173ffffffffffffffffffffffffffffffffffffffff021916908373ffffffffffffffffffffffffffffffffffffffff160217905550808273ffffffffffffffffffffffffffffffffffffffff166113e283610c0a565b73ffffffffffffffffffffffffffffffffffffffff167f8c5be1e5ebec7d5bd14f71427d1e84f3dd0314c0f7b2291e5b200ac8c7c3b92560405160405180910390a45050565b6000611433826112fb565b611472576040517f08c379a0000000000000000000000000000000000000000000000000000000008152600401611469906126d7565b60405180910390fd5b600061147d83610c0a565b90508073ffffffffffffffffffffffffffffffffffffffff168473ffffffffffffffffffffffffffffffffffffffff1614806114ec57508373ffffffffffffffffffffffffffffffffffffffff166114d4846106ab565b73ffffffffffffffffffffffffffffffffffffffff16145b806114fd57506114fc81856111fd565b5b91505092915050565b8273ffffffffffffffffffffffffffffffffffffffff1661152682610c0a565b73ffffffffffffffffffffffffffffffffffffffff161461157c576040517f08c379a000000000000000000000000000000000000000000000000000000000815260040161157390612797565b60405180910390fd5b600073ffffffffffffffffffffffffffffffffffffffff168273ffffffffffffffffffffffffffffffffffffffff1614156115ec576040517f08c379a00000000000000000000000000000000000000000000000000000000081526004016115e390612697565b60405180910390fd5b6115f7838383611ac8565b61160260008261136f565b6001600360008573ffffffffffffffffffffffffffffffffffffffff1673ffffffffffffffffffffffffffffffffffffffff16815260200190815260200160002060008282546116529190612a3e565b925050819055506001600360008473ffffffffffffffffffffffffffffffffffffffff1673ffffffffffffffffffffffffffffffffffffffff16815260200190815260200160002060008282546116a99190612980565b92505081905550816002600083815260200190815260200160002060006101000a81548173ffffffffffffffffffffffffffffffffffffffff021916908373ffffffffffffffffffffffffffffffffffffffff160217905550808273ffffffffffffffffffffffffffffffffffffffff168473ffffffffffffffffffffffffffffffffffffffff167fddf252ad1be2c89b69c2b068fc378daa952ba7f163c4a11628f55a4df523b3ef60405160405180910390a4505050565b60008073ffffffffffffffffffffffffffffffffffffffff168273ffffffffffffffffffffffffffffffffffffffff16141561179d57600080fd5b60006117a98585611acd565b9050600060405180606001604052808360ff168152602001878152602001868152509050600781908060018154018082558091505060019003906000526020600020906003020160009091909190915060008201518160000160006101000a81548160ff021916908360ff16021790555060208201518160010155604082015181600201555050600060016007805490506118449190612a3e565b90506118508582611afb565b7f3e55573ff0e76f82bdde8a92fcb5d2f10d2836d0ba36df6ad1d389e2cc2b3e0d85828460200151856040015186600001516040516118939594939291906125a5565b60405180910390a18093505050509392505050565b6118b3848484611506565b6118bf84848484611cc9565b6118fe576040517f08c379a00000000000000000000000000000000000000000000000000000000081526004016118f590612657565b60405180910390fd5b50505050565b606060405180602001604052806000815250905090565b60606000821415611963576040518060400160405280600181526020017f30000000000000000000000000000000000000000000000000000000000000008152509050611ac3565b600082905060005b6000821461199557808061197e90612baa565b915050600a8261198e9190612a0d565b915061196b565b60008167ffffffffffffffff8111156119d7577f4e487b7100000000000000000000000000000000000000000000000000000000600052604160045260246000fd5b6040519080825280601f01601f191660200182016040528015611a095781602001600182028036833780820191505090505b5090505b60008514611abc57600182611a229190612a3e565b9150600a85611a319190612bf3565b6030611a3d9190612980565b60f81b818381518110611a79577f4e487b7100000000000000000000000000000000000000000000000000000000600052603260045260246000fd5b60200101907effffffffffffffffffffffffffffffffffffffffffffffffffffffffffffff1916908160001a905350600a85611ab59190612a0d565b9450611a0d565b8093505050505b919050565b505050565b6000600160068385611adf9190612980565b611ae99190612c24565b611af391906129d6565b905092915050565b600073ffffffffffffffffffffffffffffffffffffffff168273ffffffffffffffffffffffffffffffffffffffff161415611b6b576040517f08c379a0000000000000000000000000000000000000000000000000000000008152600401611b6290612757565b60405180910390fd5b611b74816112fb565b15611bb4576040517f08c379a0000000000000000000000000000000000000000000000000000000008152600401611bab90612677565b60405180910390fd5b611bc060008383611ac8565b6001600360008473ffffffffffffffffffffffffffffffffffffffff1673ffffffffffffffffffffffffffffffffffffffff1681526020019081526020016000206000828254611c109190612980565b92505081905550816002600083815260200190815260200160002060006101000a81548173ffffffffffffffffffffffffffffffffffffffff021916908373ffffffffffffffffffffffffffffffffffffffff160217905550808273ffffffffffffffffffffffffffffffffffffffff16600073ffffffffffffffffffffffffffffffffffffffff167fddf252ad1be2c89b69c2b068fc378daa952ba7f163c4a11628f55a4df523b3ef60405160405180910390a45050565b6000611cea8473ffffffffffffffffffffffffffffffffffffffff16611e60565b15611e53578373ffffffffffffffffffffffffffffffffffffffff1663150b7a02611d13611367565b8786866040518563ffffffff1660e01b8152600401611d359493929190612559565b602060405180830381600087803b158015611d4f57600080fd5b505af1925050508015611d8057506040513d601f19601f82011682018060405250810190611d7d9190612114565b60015b611e03573d8060008114611db0576040519150601f19603f3d011682016040523d82523d6000602084013e611db5565b606091505b50600081511415611dfb576040517f08c379a0000000000000000000000000000000000000000000000000000000008152600401611df290612657565b60405180910390fd5b805181602001fd5b63150b7a0260e01b7bffffffffffffffffffffffffffffffffffffffffffffffffffffffff1916817bffffffffffffffffffffffffffffffffffffffffffffffffffffffff191614915050611e58565b600190505b949350505050565b600080823b905060008111915050919050565b6000611e86611e81846128d3565b6128ae565b905082815260208101848484011115611e9e57600080fd5b611ea9848285612b05565b509392505050565b600081359050611ec081613102565b92915050565b600081359050611ed581613119565b92915050565b600081359050611eea81613130565b92915050565b600081519050611eff81613130565b92915050565b600082601f830112611f1657600080fd5b8135611f26848260208601611e73565b91505092915050565b600081359050611f3e81613147565b92915050565b600060208284031215611f5657600080fd5b6000611f6484828501611eb1565b91505092915050565b60008060408385031215611f8057600080fd5b6000611f8e85828601611eb1565b9250506020611f9f85828601611eb1565b9150509250929050565b600080600060608486031215611fbe57600080fd5b6000611fcc86828701611eb1565b9350506020611fdd86828701611eb1565b9250506040611fee86828701611f2f565b9150509250925092565b6000806000806080858703121561200e57600080fd5b600061201c87828801611eb1565b945050602061202d87828801611eb1565b935050604061203e87828801611f2f565b925050606085013567ffffffffffffffff81111561205b57600080fd5b61206787828801611f05565b91505092959194509250565b6000806040838503121561208657600080fd5b600061209485828601611eb1565b92505060206120a585828601611ec6565b9150509250929050565b600080604083850312156120c257600080fd5b60006120d085828601611eb1565b92505060206120e185828601611f2f565b9150509250929050565b6000602082840312156120fd57600080fd5b600061210b84828501611edb565b91505092915050565b60006020828403121561212657600080fd5b600061213484828501611ef0565b91505092915050565b60006020828403121561214f57600080fd5b600061215d84828501611f2f565b91505092915050565b6000806040838503121561217957600080fd5b600061218785828601611f2f565b925050602061219885828601611f2f565b9150509250929050565b60006121ae83836124d2565b60208301905092915050565b6121c381612a84565b82525050565b6121d281612a72565b82525050565b60006121e382612914565b6121ed8185612942565b93506121f883612904565b8060005b8381101561222957815161221088826121a2565b975061221b83612935565b9250506001810190506121fc565b5085935050505092915050565b61223f81612a96565b82525050565b60006122508261291f565b61225a8185612953565b935061226a818560208601612b14565b61227381612d11565b840191505092915050565b60006122898261292a565b6122938185612964565b93506122a3818560208601612b14565b6122ac81612d11565b840191505092915050565b60006122c28261292a565b6122cc8185612975565b93506122dc818560208601612b14565b80840191505092915050565b60006122f5603283612964565b915061230082612d22565b604082019050919050565b6000612318601c83612964565b915061232382612d71565b602082019050919050565b600061233b602483612964565b915061234682612d9a565b604082019050919050565b600061235e601983612964565b915061236982612de9565b602082019050919050565b6000612381602c83612964565b915061238c82612e12565b604082019050919050565b60006123a4603883612964565b91506123af82612e61565b604082019050919050565b60006123c7602a83612964565b91506123d282612eb0565b604082019050919050565b60006123ea602983612964565b91506123f582612eff565b604082019050919050565b600061240d602083612964565b915061241882612f4e565b602082019050919050565b6000612430602c83612964565b915061243b82612f77565b604082019050919050565b6000612453602983612964565b915061245e82612fc6565b604082019050919050565b6000612476602f83612964565b915061248182613015565b604082019050919050565b6000612499602183612964565b91506124a482613064565b604082019050919050565b60006124bc603183612964565b91506124c7826130b3565b604082019050919050565b6124db81612aee565b82525050565b6124ea81612aee565b82525050565b6124f981612af8565b82525050565b600061250b82856122b7565b915061251782846122b7565b91508190509392505050565b600060208201905061253860008301846121c9565b92915050565b600060208201905061255360008301846121ba565b92915050565b600060808201905061256e60008301876121c9565b61257b60208301866121c9565b61258860408301856124e1565b818103606083015261259a8184612245565b905095945050505050565b600060a0820190506125ba60008301886121c9565b6125c760208301876124e1565b6125d460408301866124e1565b6125e160608301856124e1565b6125ee60808301846124f0565b9695505050505050565b6000602082019050818103600083015261261281846121d8565b905092915050565b600060208201905061262f6000830184612236565b92915050565b6000602082019050818103600083015261264f818461227e565b905092915050565b60006020820190508181036000830152612670816122e8565b9050919050565b600060208201905081810360008301526126908161230b565b9050919050565b600060208201905081810360008301526126b08161232e565b9050919050565b600060208201905081810360008301526126d081612351565b9050919050565b600060208201905081810360008301526126f081612374565b9050919050565b6000602082019050818103600083015261271081612397565b9050919050565b60006020820190508181036000830152612730816123ba565b9050919050565b60006020820190508181036000830152612750816123dd565b9050919050565b6000602082019050818103600083015261277081612400565b9050919050565b6000602082019050818103600083015261279081612423565b9050919050565b600060208201905081810360008301526127b081612446565b9050919050565b600060208201905081810360008301526127d081612469565b9050919050565b600060208201905081810360008301526127f08161248c565b9050919050565b60006020820190508181036000830152612810816124af565b9050919050565b600060208201905061282c60008301846124e1565b92915050565b600060808201905061284760008301876124e1565b61285460208301866124f0565b61286160408301856124e1565b61286e60608301846124e1565b95945050505050565b600060608201905061288c60008301866124f0565b61289960208301856124e1565b6128a660408301846124e1565b949350505050565b60006128b86128c9565b90506128c48282612b79565b919050565b6000604051905090565b600067ffffffffffffffff8211156128ee576128ed612ce2565b5b6128f782612d11565b9050602081019050919050565b6000819050602082019050919050565b600081519050919050565b600081519050919050565b600081519050919050565b6000602082019050919050565b600082825260208201905092915050565b600082825260208201905092915050565b600082825260208201905092915050565b600081905092915050565b600061298b82612aee565b915061299683612aee565b9250827fffffffffffffffffffffffffffffffffffffffffffffffffffffffffffffffff038211156129cb576129ca612c55565b5b828201905092915050565b60006129e182612af8565b91506129ec83612af8565b92508260ff03821115612a0257612a01612c55565b5b828201905092915050565b6000612a1882612aee565b9150612a2383612aee565b925082612a3357612a32612c84565b5b828204905092915050565b6000612a4982612aee565b9150612a5483612aee565b925082821015612a6757612a66612c55565b5b828203905092915050565b6000612a7d82612ace565b9050919050565b6000612a8f82612ace565b9050919050565b60008115159050919050565b60007fffffffff0000000000000000000000000000000000000000000000000000000082169050919050565b600073ffffffffffffffffffffffffffffffffffffffff82169050919050565b6000819050919050565b600060ff82169050919050565b82818337600083830152505050565b60005b83811015612b32578082015181840152602081019050612b17565b83811115612b41576000848401525b50505050565b60006002820490506001821680612b5f57607f821691505b60208210811415612b7357612b72612cb3565b5b50919050565b612b8282612d11565b810181811067ffffffffffffffff82111715612ba157612ba0612ce2565b5b80604052505050565b6000612bb582612aee565b91507fffffffffffffffffffffffffffffffffffffffffffffffffffffffffffffffff821415612be857612be7612c55565b5b600182019050919050565b6000612bfe82612aee565b9150612c0983612aee565b925082612c1957612c18612c84565b5b828206905092915050565b6000612c2f82612af8565b9150612c3a83612af8565b925082612c4a57612c49612c84565b5b828206905092915050565b7f4e487b7100000000000000000000000000000000000000000000000000000000600052601160045260246000fd5b7f4e487b7100000000000000000000000000000000000000000000000000000000600052601260045260246000fd5b7f4e487b7100000000000000000000000000000000000000000000000000000000600052602260045260246000fd5b7f4e487b7100000000000000000000000000000000000000000000000000000000600052604160045260246000fd5b6000601f19601f8301169050919050565b7f4552433732313a207472616e7366657220746f206e6f6e20455243373231526560008201527f63656976657220696d706c656d656e7465720000000000000000000000000000602082015250565b7f4552433732313a20746f6b656e20616c7265616479206d696e74656400000000600082015250565b7f4552433732313a207472616e7366657220746f20746865207a65726f2061646460008201527f7265737300000000000000000000000000000000000000000000000000000000602082015250565b7f4552433732313a20617070726f766520746f2063616c6c657200000000000000600082015250565b7f4552433732313a206f70657261746f7220717565727920666f72206e6f6e657860008201527f697374656e7420746f6b656e0000000000000000000000000000000000000000602082015250565b7f4552433732313a20617070726f76652063616c6c6572206973206e6f74206f7760008201527f6e6572206e6f7220617070726f76656420666f7220616c6c0000000000000000602082015250565b7f4552433732313a2062616c616e636520717565727920666f7220746865207a6560008201527f726f206164647265737300000000000000000000000000000000000000000000602082015250565b7f4552433732313a206f776e657220717565727920666f72206e6f6e657869737460008201527f656e7420746f6b656e0000000000000000000000000000000000000000000000602082015250565b7f4552433732313a206d696e7420746f20746865207a65726f2061646472657373600082015250565b7f4552433732313a20617070726f76656420717565727920666f72206e6f6e657860008201527f697374656e7420746f6b656e0000000000000000000000000000000000000000602082015250565b7f4552433732313a207472616e73666572206f6620746f6b656e2074686174206960008201527f73206e6f74206f776e0000000000000000000000000000000000000000000000602082015250565b7f4552433732314d657461646174613a2055524920717565727920666f72206e6f60008201527f6e6578697374656e7420746f6b656e0000000000000000000000000000000000602082015250565b7f4552433732313a20617070726f76616c20746f2063757272656e74206f776e6560008201527f7200000000000000000000000000000000000000000000000000000000000000602082015250565b7f4552433732313a207472616e736665722063616c6c6572206973206e6f74206f60008201527f776e6572206e6f7220617070726f766564000000000000000000000000000000602082015250565b61310b81612a72565b811461311657600080fd5b50565b61312281612a96565b811461312d57600080fd5b50565b61313981612aa2565b811461314457600080fd5b50565b61315081612aee565b811461315b57600080fd5b5056fea2646970667358221220e42c9c48253be150fc5fcdd38d7b7160d51a90956939651f5ee540ed9f33b27464736f6c63430008040033",
  "immutableReferences": {},
  "source": "// SPDX-License-Identifier: MIT\n\npragma solidity 0.8.4;\n\nimport \"@openzeppelin/contracts/token/ERC721/ERC721.sol\";\n\ncontract ViperToken is ERC721 {\n\n    // This struct will be used to represent one viper\n    struct Viper {\n        uint8 genes;\n        uint256 matronId;\n        uint256 sireId;\n    }\n\n    address payable public owner;\n    modifier onlyOwner {\n        require(msg.sender == owner);\n        _;\n    }\n    // List of existing vipers\n    Viper[] public vipers;\n\n    // Event that will be emitted whenever a new viper is created\n    event Birth(\n        address owner,\n        uint256 viperId,\n        uint256 matronId,\n        uint256 sireId,\n        uint8 genes\n    );\n\n    // Initializing an ERC-721 Token named 'Vipers' with a symbol 'VPR'\n    constructor() ERC721(\"Vipers\", \"VPR\") {\n        owner = payable(msg.sender);\n    }\n\n    /** @dev Function to determine a viper's characteristics.\n      * @param matron ID of viper's matron (one parent)\n      * @param sire ID of viper's sire (other parent)\n      * @return The viper's genes in the form of uint8\n      */\n    function generateViperGenes(\n        uint256 matron,\n        uint256 sire\n    )\n    internal\n    pure\n    returns (uint8)\n    {\n        return uint8(matron + sire) % 6 + 1;\n    }\n\n    /** @dev Function to create a new viper\n      * @param matron ID of new viper's matron (one parent)\n      * @param sire ID of new viper's sire (other parent)\n      * @param viperOwner Address of new viper's owner\n      * @return The new viper's ID\n      */\n    function createViper(\n        uint256 matron,\n        uint256 sire,\n        address viperOwner\n    )\n    internal\n    returns (uint)\n    {\n        require(viperOwner != address(0));\n        uint8 newGenes = generateViperGenes(matron, sire);\n        Viper memory newViper = Viper({\n        genes: newGenes,\n        matronId: matron,\n        sireId: sire\n        });\n        vipers.push(newViper);\n        uint256 newViperId = vipers.length - 1;\n        super._mint(viperOwner, newViperId);\n        emit Birth(\n            viperOwner,\n            newViperId,\n            newViper.matronId,\n            newViper.sireId,\n            newViper.genes\n        );\n        return newViperId;\n    }\n\n    /** @dev Function to allow user to buy a new viper (calls createViper())\n      * @return The new viper's ID\n      */\n    function buyViper() external payable returns (uint256) {\n        require(msg.value == 0.02 ether);\n        return createViper(0, 0, msg.sender);\n    }\n\n    /** @dev Function to breed 2 vipers to create a new one\n      * @param matronId ID of new viper's matron (one parent)\n      * @param sireId ID of new viper's sire (other parent)\n      * @return The new viper's ID\n      */\n    function breedVipers(uint256 matronId, uint256 sireId) external payable returns (uint256) {\n        require(msg.value == 0.05 ether);\n        return createViper(matronId, sireId, msg.sender);\n    }\n\n    /** @dev Function to retrieve a specific viper's details.\n      * @param viperId ID of the viper who's details will be retrieved\n      * @return An array, [viper's ID, viper's genes, matron's ID, sire's ID]\n      */\n    function getViperDetails(uint256 viperId) external view returns (uint256, uint8, uint256, uint256) {\n        Viper storage viper = vipers[viperId];\n        return (viperId, viper.genes, viper.matronId, viper.sireId);\n    }\n\n    /** @dev Function to get a list of owned vipers' IDs\n      * @return A uint array which contains IDs of all owned vipers\n      */\n    function ownedVipers() external view returns(uint256[] memory) {\n        uint256 viperCount = balanceOf(msg.sender);\n        if (viperCount == 0) {\n            return new uint256[](0);\n        } else {\n            uint256[] memory result = new uint256[](viperCount);\n            uint256 totalVipers = vipers.length;\n            uint256 resultIndex = 0;\n            uint256 viperId = 0;\n            while (viperId < totalVipers) {\n                if (ownerOf(viperId) == msg.sender) {\n                    result[resultIndex] = viperId;\n                    resultIndex = resultIndex + 1;\n                }\n                viperId = viperId + 1;\n            }\n            return result;\n        }\n    }\n\n    function changeOwner(address newOwner) public onlyOwner {\n        require(newOwner != address(0));\n        owner = payable(newOwner);\n    }\n\n    function withdraw() public onlyOwner returns(bool success) {\n        uint256 amount = address(this).balance;\n        owner.transfer(amount);\n\n        return true;\n    }\n}",
  "sourcePath": "/Users/luke/code/cyrptovipers2/contracts/ViperToken.sol",
  "compiler": {
    "name": "solc",
    "version": "0.8.4+commit.c7e474f2.Emscripten.clang"
  },
  "schemaVersion": "3.4.1",
  "updatedAt": "2021-05-28T15:34:36.792Z",
  "networkType": "ethereum",
  "devdoc": {
    "kind": "dev",
    "methods": {
      "approve(address,uint256)": {
        "details": "See {IERC721-approve}."
      },
      "balanceOf(address)": {
        "details": "See {IERC721-balanceOf}."
      },
      "breedVipers(uint256,uint256)": {
        "details": "Function to breed 2 vipers to create a new one",
        "params": {
          "matronId": "ID of new viper's matron (one parent)",
          "sireId": "ID of new viper's sire (other parent)"
        },
        "returns": {
          "_0": "The new viper's ID"
        }
      },
      "buyViper()": {
        "details": "Function to allow user to buy a new viper (calls createViper())",
        "returns": {
          "_0": "The new viper's ID"
        }
      },
      "getApproved(uint256)": {
        "details": "See {IERC721-getApproved}."
      },
      "getViperDetails(uint256)": {
        "details": "Function to retrieve a specific viper's details.",
        "params": {
          "viperId": "ID of the viper who's details will be retrieved"
        },
        "returns": {
          "_0": "An array, [viper's ID, viper's genes, matron's ID, sire's ID]"
        }
      },
      "isApprovedForAll(address,address)": {
        "details": "See {IERC721-isApprovedForAll}."
      },
      "name()": {
        "details": "See {IERC721Metadata-name}."
      },
      "ownedVipers()": {
        "details": "Function to get a list of owned vipers' IDs",
        "returns": {
          "_0": "A uint array which contains IDs of all owned vipers"
        }
      },
      "ownerOf(uint256)": {
        "details": "See {IERC721-ownerOf}."
      },
      "safeTransferFrom(address,address,uint256)": {
        "details": "See {IERC721-safeTransferFrom}."
      },
      "safeTransferFrom(address,address,uint256,bytes)": {
        "details": "See {IERC721-safeTransferFrom}."
      },
      "setApprovalForAll(address,bool)": {
        "details": "See {IERC721-setApprovalForAll}."
      },
      "supportsInterface(bytes4)": {
        "details": "See {IERC165-supportsInterface}."
      },
      "symbol()": {
        "details": "See {IERC721Metadata-symbol}."
      },
      "tokenURI(uint256)": {
        "details": "See {IERC721Metadata-tokenURI}."
      },
      "transferFrom(address,address,uint256)": {
        "details": "See {IERC721-transferFrom}."
      }
    },
    "version": 1
  },
  "userdoc": {
    "kind": "user",
    "methods": {},
    "version": 1
  }
}